:020000040800F2
:100000000006002089010008C5010008C70100089A
:10001000C9010008CB010008CD0100080000000064
:10002000000000000000000000000000CF010008F8
:10003000D101000800000000D3010008D50100082C
:10004000D7010008D7010008D7010008D701000830
:10005000D7010008D7010008D7010008D701000820
:10006000D7010008D7010008D7010008D701000810
:10007000D7010008D7010008D7010008D701000800
:10008000D7010008D7010008D7010008D7010008F0
:10009000D7010008D7010008D7010008D7010008E0
:1000A000D7010008D7010008D7010008D7010008D0
:1000B000D7010008D7010008D7010008D7010008C0
:1000C000D7010008D7010008D7010008D7010008B0
:1000D000D7010008D7010008D7010008D7010008A0
:1000E000D7010008D7010008D7010008D701000890
:1000F000D7010008D7010008D7010008D701000880
:10010000D7010008D7010008D7010008D70100086F
:10011000D7010008D7010008D7010008D70100085F
:10012000D7010008D7010008D7010008D70100084F
:10013000D7010008D7010008D7010008D70100083F
:10014000D7010008D7010008D7010008D70100082F
:10015000D7010008D7010008D7010008D70100081F
:10016000D7010008D7010008D7010008D70100080F
:10017000D7010008D7010008D701000800000000DF
:10018000D7010008D701000816481749174B9942B4
:100190003CBF50F8042B41F8042BF8D314494FF01E
:1001A00000028B4238BF43F8042BFAD3DFF8440037
:1001B000016841F470010160BFF34F8FBFF36F8F8F
:1001C0000D480047FEE7FEE7FEE7FEE7FEE7FEE735
:1001D000FEE7FEE7FEE7FEE708480949094A0A4B41
:1001E00070470000F002000800000020000000201E
:1001F0000006002088ED00E0150200080000002045
:100200000006002000020020000200207047704716
:10021000704700003248016841F480710160304845
:10022000816821F0030181602D48016821F0F0010F
:1002300001602B48016821F0F00141F0700101607C
:100240002748016841F0080101602548C16C41F070
:100250001001C1642348016821F4403141F40031A8
:100260000160416A21F00F0141F0010141628168A2
:1002700021F440318160C16821F44031C1601848E7
:10028000016E41F4006101661748016821F0100118
:100290000160816A4FF008018162C16A40F2E73172
:1002A000C162416B4FF4FA714163416C41F400410A
:1002B000416481690D4A21EA02018161816941F04D
:1002C000100141F020018161016A21F00801016201
:1002D000016A41F004010162016841F0010101601D
:1002E0000010024000100048002C01407000010086
:0400000508000215D8
:00000001FF
