:020000040800F2
:100000000006002089010008C5010008C70100089A
:10001000C9010008CB010008CD0100080000000064
:10002000000000000000000000000000CF010008F8
:10003000D101000800000000D3010008D50100082C
:10004000D7010008D7010008D7010008D701000830
:10005000D7010008D7010008D7010008D701000820
:10006000D7010008D7010008D7010008D701000810
:10007000D7010008D7010008D7010008D701000800
:10008000D7010008D7010008D7010008D7010008F0
:10009000D7010008D7010008D7010008D7010008E0
:1000A000D7010008D7010008D7010008D7010008D0
:1000B000D7010008D7010008D7010008D7010008C0
:1000C000D7010008D7010008D7010008D7010008B0
:1000D000D7010008D7010008D7010008D7010008A0
:1000E000D7010008D7010008D7010008D701000890
:1000F000D7010008D7010008D7010008D701000880
:10010000D7010008D7010008D7010008D70100086F
:10011000D7010008D7010008D7010008D70100085F
:10012000D7010008D7010008D7010008D70100084F
:10013000D7010008D7010008D7010008D70100083F
:10014000D7010008D7010008D7010008D70100082F
:10015000D7010008D7010008D7010008D70100081F
:10016000D7010008D7010008D7010008D70100080F
:10017000D7010008D7010008D701000800000000DF
:10018000D7010008D701000816481749174B9942B4
:100190003CBF50F8042B41F8042BF8D314494FF01E
:1001A00000028B4238BF43F8042BFAD3DFF8440037
:1001B000016841F470010160BFF34F8FBFF36F8F8F
:1001C0000D480047FEE7FEE7FEE7FEE7FEE7FEE735
:1001D000FEE7FEE7FEE7FEE708480949094A0A4B41
:1001E00070470000C002000800000020000000204E
:1001F0000006002088ED00E0150200080000002045
:100200000006002000020020000200207047704716
:10021000704700004FF0000004E017E01BE02EE004
:1002200039E0FEE72348C16C41F01001C164224867
:10023000016821F4403141F480310160EDE71E484E
:10024000416908BF81F4807141612EE0416941F448
:1002500080714161E2E71748C16C41F00201C1645D
:100260001648016821F0300141F010010160D6E725
:100270001248416908BF81F00401416116E00D4850
:10028000C16C41F00101C1644FF09040016821F060
:1002900003010160C4E701690A4601699142FCD08B
:1002A00002F00102012A0A46C9E7E1E74FF0904057
:1002B000F3E700000010024000100048000400486E
:0400000508000215D8
:00000001FF
