:020000040800F2
:100000000006002089010008C5010008C70100089A
:10001000C9010008CB010008CD0100080000000064
:10002000000000000000000000000000CF010008F8
:10003000D101000800000000D3010008D50100082C
:10004000D7010008D7010008D7010008D701000830
:10005000D7010008D7010008D7010008D701000820
:10006000D7010008D7010008D7010008D701000810
:10007000D7010008D7010008D7010008D701000800
:10008000D7010008D7010008D7010008D7010008F0
:10009000D7010008D7010008D7010008D7010008E0
:1000A000D7010008D7010008D7010008D7010008D0
:1000B000D7010008D7010008D7010008D7010008C0
:1000C000D7010008D7010008D7010008D7010008B0
:1000D000D7010008D7010008D7010008D7010008A0
:1000E000D7010008D7010008D7010008D701000890
:1000F000D7010008D7010008D7010008D701000880
:10010000D7010008D7010008D7010008D70100086F
:10011000D7010008D7010008D7010008D70100085F
:10012000D7010008D7010008D7010008D70100084F
:10013000D7010008D7010008D7010008D70100083F
:10014000D7010008D7010008D7010008D70100082F
:10015000D7010008D7010008D7010008D70100081F
:10016000D7010008D7010008D7010008D70100080F
:10017000D7010008D7010008D701000800000000DF
:10018000D7010008D701000816481749174B9942B4
:100190003CBF50F8042B41F8042BF8D314494FF01E
:1001A00000028B4238BF43F8042BFAD3DFF8440037
:1001B000016841F470010160BFF34F8FBFF36F8F8F
:1001C0000D480047FEE7FEE7FEE7FEE7FEE7FEE735
:1001D000FEE7FEE7FEE7FEE708480949094A0A4B41
:1001E00070470000180300080000002000000020F5
:1001F0000006002088ED00E0150200080000002045
:100200000006002000020020000200207047704716
:10021000704700004FF0000003E00FE023E048E0EB
:10022000FEE73A48C16C41F01001C16438480168EA
:1002300021F4403141F480310160EEE73348C16C74
:1002400041F00201C1643348016821F0300141F0FE
:1002500010010160E2E72F48416981F0040141612A
:1002600004F1010451E02948C16C41F00101C1646D
:100270004FF09040016821F00C0121F0300121F095
:10028000C00121F4406101604FF09040C16821F04D
:100290000C0141F0080121F0300141F0200121F072
:1002A000C00141F0800121F4406141F40061C1606E
:1002B000B5E74FF09040016941F480410A464FF0A4
:1002C00000044FF000054FF09040016941F4804177
:1002D0009142F8D0134603F00803082B08BF0134FD
:1002E000134603F02003202B08BF0134134603F00C
:1002F0000203022B08BF0134134603F00403042B4E
:1003000008BF01340A46042CA5D0DCE700100240E7
:08031000001000480004004841
:0400000508000215D8
:00000001FF
