:020000040800F2
:10000000B006002089010008C5010008C7010008EA
:10001000C9010008CB010008CD0100080000000064
:10002000000000000000000000000000CF010008F8
:10003000D101000800000000D3010008D50100082C
:10004000D7010008D7010008D7010008D701000830
:10005000D7010008D7010008D7010008D701000820
:10006000D7010008D7010008D7010008D701000810
:10007000D7010008D7010008D7010008D701000800
:10008000D7010008D7010008D7010008D7010008F0
:10009000D7010008D7010008D7010008D7010008E0
:1000A000D7010008D7010008D7010008D7010008D0
:1000B000D7010008D7010008D7010008D7010008C0
:1000C000D7010008D7010008D7010008D7010008B0
:1000D000D7010008D7010008D7010008D7010008A0
:1000E000D7010008D7010008D7010008D701000890
:1000F000D7010008D7010008D7010008D701000880
:10010000D7010008D7010008D7010008D70100086F
:10011000D7010008D7010008D7010008D70100085F
:10012000D7010008D7010008D7010008D70100084F
:10013000D7010008D7010008D7010008D70100083F
:10014000D7010008D7010008D7010008D70100082F
:10015000D7010008D7010008D7010008D70100081F
:10016000D7010008D7010008D7010008D70100080F
:10017000D7010008D7010008D701000800000000DF
:10018000D7010008D701000816481749174B9942B4
:100190003CBF50F8042B41F8042BF8D314494FF01E
:1001A00000028B4238BF43F8042BFAD3DFF8440037
:1001B000016841F470010160BFF34F8FBFF36F8F8F
:1001C0000D480047FEE7FEE7FEE7FEE7FEE7FEE735
:1001D000FEE7FEE7FEE7FEE708480949094A0A4B41
:1001E00070470000A802000800000020B0000020B6
:1001F000B006002088ED00E015020008B0000020E5
:10020000B0060020B0020020B00200207047704706
:10021000704700001F482049204A214B1B68214C91
:1002200024684FF0000C4FF000059D4230DA4FF08B
:10023000000602E005F10105F7E79E42FADA4FF009
:1002400000084FF0000709E005FB03FBBB444FEA41
:100250008B0B40F80B8006F10106EEE7A742F3DABC
:1002600003E0C84407F10107F8E705FB04F9B944C6
:100270004FEA890951F8099007FB03FAB2444FEAA3
:100280008A0A52F80AA009FB0AF90CF1010CE8E706
:10029000FEE700006C0000200C0000203C00002065
:1002A0000000002004000020040000000300000003
:1002B0000400000001000000020000000300000034
:1002C0000400000005000000060000000700000018
:1002D00008000000090000000A0000000B000000F8
:1002E0000C000000010000000200000003000000FC
:1002F00004000000050000000600000007000000E8
:1003000008000000090000000A0000000B000000C7
:100310000C000000000000000000000000000000D1
:1003200000000000000000000000000000000000CD
:1003300000000000000000000000000000000000BD
:1003400000000000000000000000000000000000AD
:080350000000000000000000A5
:0400000508000215D8
:00000001FF
